:020000040800F2
:1000000000500020FD3F0008454000084540000822
:100010004540000845400008454000080000000039
:100020000000000000000000000000004540000843
:10003000454000080000000045400008190C000879
:10004000454000084540000845400008454000087C
:100050004540000845400008250C000845400008C0
:10006000454000084540000845400008490C00088C
:10007000454000084540000845400008454000084C
:100080004540000845400008350C00084540000880
:10009000454000084540000845400008454000082C
:1000A000454000084540000845400008454000081C
:1000B000454000084540000845400008454000080C
:1000C00045400008454000084540000845400008FC
:1000D00045400008454000084540000845400008EC
:1000E0004540000845400008454000080000000069
:1000F0000000000000000000000000000000000000
:0C01000000000000000000005FF808F1A3
:1001100010B5054C237833B9044B13B10448AFF341
:1001200000800123237010BDDC01002000000000CE
:10013000646C000808B5034B1BB103490348AFF3D7
:10014000008008BD00000000E0010020646C000891
:10015000034613F8012B002AFBD1181A0138704707
:1001600081F0004102E000BF83F0004330B54FEA68
:1001700041044FEA430594EA050F08BF90EA020FD5
:100180001FBF54EA000C55EA020C7FEA645C7FEA68
:10019000655C00F0E2804FEA5454D4EB5555B8BF8B
:1001A0006D420CDD2C4480EA020281EA030382EAFC
:1001B000000083EA010180EA020281EA0303362D8E
:1001C00088BF30BD11F0004F4FEA01314FF4801C61
:1001D0004CEA113102D0404261EB410113F0004F73
:1001E0004FEA03334CEA133302D0524263EB43032A
:1001F00094EA050F00F0A780A4F10104D5F1200EC8
:100200000DDB02FA0EFC22FA05F2801841F1000122
:1002100003FA0EF2801843FA05F359410EE0A5F1F6
:1002200020050EF1200E012A03FA0EFC28BF4CF027
:10023000020C43FA05F3C01851EBE37101F00045DD
:1002400007D54FF0000EDCF1000C7EEB00006EEBEA
:100250000101B1F5801F1BD3B1F5001F0CD3490874
:100260005FEA30004FEA3C0C04F101044FEA4452CB
:1002700012F5800F80F09A80BCF1004F08BF5FEA52
:10028000500C50F1000041EB045141EA050130BD32
:100290005FEA4C0C404141EB0101013C28BFB1F544
:1002A000801FE9D291F0000F04BF01460020B1FA8F
:1002B00081F308BF2033A3F10B03B3F120020CDA62
:1002C0000C3208DD02F1140CC2F10C0201FA0CF040
:1002D00021FA02F10CE002F11402D8BFC2F1200CA5
:1002E00001FA02F120FA0CFCDCBF41EA0C0190405B
:1002F000E41AA2BF01EB0451294330BD6FEA0404A4
:100300001F3C1CDA0C340EDC04F11404C4F120028E
:1003100020FA04F001FA02F340EA030021FA04F3A0
:1003200045EA030130BDC4F10C04C4F1200220FAF7
:1003300002F001FA04F340EA0300294630BD21FA35
:1003400004F0294630BD94F0000F83F4801306BFFB
:1003500081F480110134013D4EE77FEA645C18BFEF
:100360007FEA655C29D094EA050F08BF90EA020F86
:1003700005D054EA000C04BF1946104630BD91EA7E
:10038000030F1EBF0021002030BD5FEA545C05D181
:100390004000494128BF41F0004130BD14F58004C0
:1003A0003CBF01F5801130BD01F0004545F0FE4134
:1003B00041F470014FF0000030BD7FEA645C1ABF69
:1003C000194610467FEA655C1CBF0B46024650EAA0
:1003D000013406BF52EA033591EA030F41F40021CC
:1003E00030BD00BF90F0000F04BF0021704730B552
:1003F0004FF4806404F132044FF000054FF0000127
:1004000050E700BF90F0000F04BF0021704730B5E7
:100410004FF4806404F1320410F0004548BF4042BC
:100420004FF000013EE700BF42004FEAE2014FEA11
:1004300031014FEA02701FBF12F07F4393F07F4FEC
:1004400081F06051704732F07F4208BF704793F0EF
:100450007F4F04BF41F40021704730B54FF4607402
:1004600001F0004521F000411CE700BF50EA010205
:1004700008BF704730B54FF000050AE050EA0102AE
:1004800008BF704730B511F0004502D5404261EB1E
:1004900041014FF4806404F132045FEA915C3FF45F
:1004A000D8AE4FF003025FEADC0C18BF03325FEAFC
:1004B000DC0C18BF033202EBDC02C2F1200300FAAD
:1004C00003FC20FA02F001FA03FE40EA0E0021FAD2
:1004D00002F11444BDE600BF70B54FF0FF0C4CF4C0
:1004E000E06C1CEA11541DBF1CEA135594EA0C0F72
:1004F00095EA0C0F00F0DEF82C4481EA030621EAAD
:100500004C5123EA4C5350EA013518BF52EA0335E7
:1005100041F4801143F4801338D0A0FB02CE4FF099
:100520000005E1FB02E506F00042E0FB03E54FF0C9
:100530000006E1FB03569CF0000F18BF4EF0010EC1
:10054000A4F1FF04B6F5007F64F5407404D25FEABD
:100550004E0E6D4146EB060642EAC62141EA555170
:100560004FEAC52040EA5E504FEACE2EB4F1FD0CB2
:1005700088BFBCF5E06F1ED8BEF1004F08BF5FEA30
:10058000500E50F1000041EB045170BD06F00046E2
:1005900046EA010140EA020081EA0301B4EB5C048F
:1005A000C2BFD4EB0C0541EA045170BD41F4801187
:1005B0004FF0000E013C00F3AB8014F1360FDEBFAC
:1005C000002001F0004170BDC4F10004203C35DA88
:1005D0000C341BDC04F11404C4F1200500FA05F30B
:1005E00020FA04F001FA05F240EA020001F00042AC
:1005F00021F0004110EBD37021FA04F642EB060122
:100600005EEA430E08BF20EAD37070BDC4F10C044B
:10061000C4F1200500FA04F320FA05F001FA04F20F
:1006200040EA020001F0004110EBD37041F10001FB
:100630005EEA430E08BF20EAD37070BDC4F1200506
:1006400000FA05F24EEA020E20FA04F301FA05F26E
:1006500043EA020321FA04F001F0004121FA04F216
:1006600020EA020000EBD3705EEA430E08BF20EAE6
:10067000D37070BD94F0000F0FD101F00046400020
:1006800041EB010111F4801F08BF013CF7D041EAA2
:10069000060195F0000F18BF704703F000465200A6
:1006A00043EB030313F4801F08BF013DF7D043EA77
:1006B0000603704794EA0C0F0CEA135518BF95EA2D
:1006C0000C0F0CD050EA410618BF52EA4306D1D1B4
:1006D00081EA030101F000414FF0000070BD50EAD3
:1006E000410606BF1046194652EA430619D094EA5D
:1006F0000C0F02D150EA013613D195EA0C0F05D147
:1007000052EA03361CBF104619460AD181EA03019A
:1007100001F0004141F0FE4141F470014FF0000052
:1007200070BD41F0FE4141F4780170BD70B54FF0ED
:10073000FF0C4CF4E06C1CEA11541DBF1CEA13556D
:1007400094EA0C0F95EA0C0F00F0A7F8A4EB05044F
:1007500081EA030E52EA03354FEA013100F0888046
:100760004FEA03334FF0805545EA131343EA12630F
:100770004FEA022245EA111545EA10654FEA0026C4
:100780000EF000419D4208BF964244F1FD0404F57D
:10079000407402D25B084FEA3202B61A65EB0305D9
:1007A0005B084FEA32024FF480104FF4002CB6EB96
:1007B000020E75EB030E22BFB61A754640EA0C0016
:1007C0005B084FEA3202B6EB020E75EB030E22BF56
:1007D000B61A754640EA5C005B084FEA3202B6EB97
:1007E000020E75EB030E22BFB61A754640EA9C0056
:1007F0005B084FEA3202B6EB020E75EB030E22BF26
:10080000B61A754640EADC0055EA060E18D04FEAE3
:10081000051545EA16754FEA06164FEAC30343EA83
:1008200052734FEAC2025FEA1C1CC0D111F4801F50
:100830000BD141EA00014FF000004FF0004CB6E749
:1008400011F4801F04BF01430020B4F1FD0C88BFE8
:10085000BCF5E06F3FF6AFAEB5EB030C04BFB6EBF3
:10086000020C5FEA500C50F1000041EB045170BDE6
:100870000EF0004E4EEA113114EB5C04C2BFD4EB13
:100880000C0541EA045170BD41F480114FF0000E97
:10089000013C90E645EA060E8DE60CEA135594EA13
:1008A0000C0F08BF95EA0C0F3FF43BAF94EA0C0F16
:1008B0000AD150EA01347FF434AF95EA0C0F7FF48B
:1008C00025AF104619462CE795EA0C0F06D152EADF
:1008D00003353FF4FDAE1046194622E750EA4106C3
:1008E00018BF52EA43067FF4C5AE50EA41047FF4D4
:1008F0000DAF52EA43057FF4EBAE12E74FF0FF3C39
:1009000006E000BF4FF0010C02E000BF4FF0010C09
:100910004DF804CD4FEA410C7FEA6C5C4FEA430C82
:1009200018BF7FEA6C5C1BD001B050EA410C0CBFD1
:1009300052EA430C91EA030F02BF90EA020F002033
:10094000704710F1000F91EA030F58BF994208BF9A
:1009500090422CBFD8176FEAE37040F00100704757
:100960004FEA410C7FEA6C5C02D150EA013C07D1AE
:100970004FEA430C7FEA6C5CD6D152EA033CD3D0F9
:100980005DF8040B704700BF8446104662468C46F3
:100990001946634600E000BF01B5FFF7B7FF002826
:1009A00048BF10F1000F01BD4DF808EDFFF7F4FF4F
:1009B0000CBF012000205DF808FB00BF4DF808EDDA
:1009C000FFF7EAFF34BF012000205DF808FB00BFFD
:1009D0004DF808EDFFF7E0FF94BF012000205DF81F
:1009E00008FB00BF4DF808EDFFF7CEFF94BF0120D4
:1009F00000205DF808FB00BF4DF808EDFFF7C4FFCD
:100A000034BF012000205DF808FB00BF4FEA410C15
:100A10007FEA6C5C02D150EA013C0AD14FEA430CF8
:100A20007FEA6C5C02D152EA033C02D14FF0000035
:100A300070474FF0010070474FEA410212F5001273
:100A400015D211D56FF47873B3EB625212D94FEA15
:100A5000C12343F0004343EA505311F0004F23FAFF
:100A600002F018BF404270474FF00000704750EA54
:100A7000013005D111F0004008BF6FF00040704711
:100A80004FF00000704700BF80B582B000AF00F0AB
:100A9000EDF803F09DF903F043FA03F073FA03F065
:100AA000E7F803F01FF903F049F902F08FFF02F0B5
:100AB000B7FF03F023F8322003F0CEF9012003F052
:100AC00065F8012003F0A0F803221F491F4800F039
:100AD00017FA1F4802F056FB1E4B1B78002BFBD069
:100AE0001C4B00221A701C4803F0C0FF164B1B88D9
:100AF0001946154B5B881A46134B9B88174803F021
:100B00002FFF03F0E3F8164B1B78002B05D0144B96
:100B100000221A70134803F0A9FF0C4800F0F4FDFE
:100B20004FF4FA71094800F075FE0346002BD3D14B
:100B30000121064800F066FF78607B6819460A4884
:100B400003F00EFFC8E700BFFC01002008020020F0
:100B50007C020020F8010020806C0008906C0008E6
:100B6000F9010020B06C0008D46C000880B483B098
:100B700000AF7860034B01221A7000BF0C37BD46EE
:100B800080BC7047F801002080B483B000AF78606B
:100B90007B681B68054A934202D1054B01221A70FB
:100BA00000BF0C37BD4680BC704700BF0024014029
:100BB000F901002080B584B000AF78607B68DBB2BB
:100BC0003B7307F10C0164230122044802F094FDF9
:100BD0007B6818461037BD4680BD00BFC4020020A8
:100BE00080B586B000AFF860B9607A6000237B61A1
:100BF00009E0BB685A1CBA601B781846FFF7DAFF99
:100C00007B6901337B617A697B689A42F1DB7B689F
:100C100018461837BD4680BD80B500AF00F072F8A9
:100C200000BF80BD80B500AF012001F057FD00BFBF
:100C300080BD000080B500AF024800F03FFA00BF61
:100C400080BD00BF0802002080B500AF034B1B6AC7
:100C5000184601F071FA00BF80BD00BF08020020F5
:100C600080B400AF00BFBD4680BC704780B500AF08
:100C7000084B1B68074A43F010031360032001F080
:100C80005FF90F2000F00EF800F006F80023184678
:100C900080BD00BF0020024080B400AF00BFBD4651
:100CA00080BC704780B582B000AF7860124B1A6884
:100CB000124B1B7819464FF47A73B3FBF1F3B2FB76
:100CC000F3F3184601F071F90346002B01D001231C
:100CD0000EE07B680F2B0AD8002279684FF0FF30B6
:100CE00001F039F9064A7B681360002300E0012314
:100CF00018460837BD4680BD0000002008000020CF
:100D00000400002080B400AF054B1B781A46054B49
:100D10001B681344034A136000BFBD4680BC704784
:100D2000080000200402002080B400AF024B1B68C2
:100D30001846BD4680BC70470402002080B586B0CE
:100D400000AF78600023FB7500233B610023BB608C
:100D50000023FB607B68002B01D10123BEE07B6890
:100D60009B68002B7B689B6A002B09D17B68002263
:100D7000DA627B68002283F82420786800F0B6F8F5
:100D8000786800F019FC0346FB757B689B6A03F0EA
:100D90001003002B40F09980FB7D002B40F09580E4
:100DA0007B689B6A23F4885323F0020343F002021A
:100DB0007B689A627B685A687B68DB691A437B6848
:100DC0001B7B5B001343BA681343BB607B689B6863
:100DD000B3F5807F03D07B689B68012B02D14FF471
:100DE000807300E000233A6913433B617B681B7DFD
:100DF000012B19D17B681B7B002B09D17B689B6978
:100E0000013B5A033B69134343F400633B610BE02E
:100E10007B689B6A43F020027B689A627B68DB6A8E
:100E200043F001027B68DA627B681B685B6823F42D
:100E300069417B681B683A690A435A607B681B6892
:100E40009A68284B13407A681268B9680B4393601C
:100E50007B689B68B3F5807F03D07B689B68012B20
:100E600004D17B681B69013B1B05FB607B681B6829
:100E7000DB6A23F470017B681B68FA680A43DA6254
:100E80007B681B689A68184B1340BA689A420BD16A
:100E90007B680022DA627B689B6A23F0030343F0DD
:100EA00001027B689A6218E07B689B6A23F0120358
:100EB00043F010027B689A627B68DB6A43F00102B0
:100EC0007B68DA620123FB7507E07B689B6A43F06D
:100ED00010027B689A620123FB75FB7D1846183768
:100EE000BD4680BDFDF7E1FFFE0E1FFF80B483B05D
:100EF00000AF786000BF0C37BD4680BC7047000073
:100F000080B586B000AFF860B9607A600023FB75E9
:100F1000FB681B68644A934204D0FB681B68634A01
:100F2000934206D1604B5B6803F47023002B40F0C2
:100F3000B380FB6893F82430012B01D10223AEE08B
:100F4000FB68012283F82420F86800F0DBFA0346EE
:100F5000FB75FB7D002B40F09A80FB689B6A23F4B5
:100F6000706323F0010343F48072FB689A62FB68AC
:100F70001B684E4A934205D14B4B5B6803F47023C8
:100F8000002B15D1FB689B6A23F48012FB689A62E0
:100F9000FB681B685B6803F48063002B26D0FB684A
:100FA0009B6A23F4405343F48052FB689A621DE02D
:100FB000FB689B6A43F48012FB689A62FB681B68BB
:100FC000394A934204D0FB681B68384A93420DD1DA
:100FD000354B5B6803F48063002B07D0FB689B6A8A
:100FE00023F4405343F48052FB689A62FB689B6A87
:100FF00003F48053002B06D0FB68DB6A23F0060263
:10100000FB68DA6202E0FB680022DA62FB68002219
:1010100083F82420FB681B6A254A9A62FB681B6AD6
:10102000244ADA62FB681B6A234A1A63FB681B685E
:101030006FF002021A60FB681B689A68FB681B6805
:1010400042F480729A60FB68186AFB681B684C3334
:101050001946BA687B6801F00FF8FB681B689B684B
:1010600003F46023B3F5602F08D1FB681B689A680E
:10107000FB681B6842F4A0029A600FE0FB681B68E3
:101080009A68FB681B6842F480129A6006E0FB686D
:10109000002283F8242001E00123FB75FB7D184624
:1010A0001837BD4680BD00BF002401400028014024
:1010B0003B160008B7160008D316000880B582B0AA
:1010C00000AF78607B681B685B6803F02003202B0F
:1010D00040D17B681B681B6803F00203022B39D1E7
:1010E0007B689B6A03F01003002B05D17B689B6A29
:1010F00043F400727B689A627B681B689B6803F408
:101100006023B3F5602F1DD17B681B7B002B19D1A9
:101110007B681B685A687B681B6822F020025A6053
:101120007B689B6A23F480727B689A627B689B6A07
:1011300003F48053002B05D17B689B6A43F00102C6
:101140007B689A627868FFF711FD7B681B686FF017
:1011500012021A607B681B685B6803F08003802BB7
:101160004FD17B681B681B6803F00403042B48D134
:101170007B689B6A03F01003002B05D17B689B6A98
:1011800043F400527B689A627B681B689B6803F497
:10119000E043B3F5E04F12D07B681B685B6803F453
:1011A0008063002B25D17B681B689B6803F4602358
:1011B000B3F5602F1DD17B681B7B002B19D17B6899
:1011C0001B685A687B681B6822F080025A607B6843
:1011D0009B6A23F480527B689A627B689B6A03F463
:1011E0008073002B05D17B689B6A43F001027B680A
:1011F0009A62786800F034FC7B681B686FF00C0220
:101200001A607B681B685B6803F04003402B14D1B5
:101210007B681B681B6803F00103012B0DD17B6801
:101220009B6A43F480327B689A627868FFF7ACFC73
:101230007B681B686FF001021A6000BF0837BD466B
:1012400080BD80B483B000AF786000BF0C37BD466E
:1012500080BC704780B483B000AF786000BF0C37AB
:10126000BD4680BC7047000080B485B000AF786098
:1012700039600023FB730023BB607B6893F8243044
:10128000012B01D10223DCE07B68012283F82420BA
:101290003B685B68062B1CD87B681B68596B3B68F6
:1012A0005A6813469B001344053B1F2202FA03F3BE
:1012B000DB4319403B6818683B685A6813469B003B
:1012C0001344053B00FA03F27B681B680A435A6328
:1012D0003CE03B685B680C2B1CD87B681B68196B77
:1012E0003B685A6813469B001344233B1F2202FAB3
:1012F00003F3DB4319403B6818683B685A681346A0
:101300009B001344233B00FA03F27B681B680A43EB
:101310001A631BE07B681B68D96A3B685A681346EE
:101320009B001344413B1F2202FA03F3DB431940A5
:101330003B6818683B685A6813469B001344413B5E
:1013400000FA03F27B681B680A43DA623B681B6899
:10135000092B1CD97B681B68D9683B681A6813463F
:101360005B0013441E3B072202FA03F3DB431940E0
:101370003B6898683B681A6813465B0013441E3B41
:1013800000FA03F27B681B680A43DA6019E07B68A5
:101390001B6819693B681A6813465B0013440722EF
:1013A00002FA03F3DB4319403B6898683B681A680C
:1013B00013465B00134400FA03F27B681B680A4380
:1013C0001A613B681B68102B03D03B681B68112B0C
:1013D00032D17B681B681D4A934225D17B681B680C
:1013E0009B6803F40003002B26D17B681B689A6876
:1013F0007B681B6842F400029A603B681B68102BF4
:101400001AD1134B1B68134AA2FB03239A0C1346F1
:101410009B0013445B00BB6002E0BB68013BBB6008
:10142000BB68002BF9D107E07B689B6A43F0200280
:101430007B689A620123FB737B68002283F8242077
:10144000FB7B18461437BD4680BC70470024014022
:101450000000002083DE1B4380B483B000AF7860BF
:1014600039603B681B68244A934203D03B681B6881
:10147000224A93427B6893F82430012B01D1022346
:1014800035E07B68012283F824203B681B7A012B1E
:1014900008D17B681B685A687B681B6842F0400271
:1014A0005A6007E07B681B685A687B681B6822F0FB
:1014B00040025A607B681B685A68114B13403A68B7
:1014C00011683A68526811437A6812680B43536096
:1014D0007B681B683A68D2685A627B681B683A6806
:1014E00012699A627B68002283F824200023184640
:1014F0000C37BD4680BC70470002800000024000EF
:10150000E0FD3FFF80B584B000AF78600023FB6052
:101510000023BB607B681B689B6803F00103012B01
:1015200040D07B681B689A687B681B6842F00102A8
:101530009A601F4B1B681F4AA2FB03239B0CBB60D6
:1015400002E0BB68013BBB60BB68002BF9D1FFF731
:10155000EBFBF8601FE0FFF7E7FB0246FB68D31ADE
:10156000022B18D97B681B689B6803F00103012BD1
:1015700011D07B689B6A43F010027B689A627B689B
:10158000DB6A43F001027B68DA627B68002283F841
:101590002420012307E07B681B689B6803F001039C
:1015A000012BD8D1002318461037BD4680BD00BF9F
:1015B0000000002083DE1B4380B584B000AF78605C
:1015C0000023FB607B681B689B6803F00103012B11
:1015D0002ED17B681B689A687B681B6822F0010229
:1015E0009A60FFF7A1FBF8601BE0FFF79DFB024646
:1015F000FB68D31A022B14D97B681B689B6803F025
:101600000103012B0DD17B689B6A43F010027B68BC
:101610009A627B68DB6A43F001027B68DA6201232D
:1016200007E07B681B689B6803F00103012BDCD09B
:10163000002318461037BD4680BD80B584B000AF8A
:1016400078607B685B6AFB60FB689B6A03F0500311
:10165000002B27D1FB689B6A43F40072FB689A62F7
:10166000FB681B689B6803F46023B3F5602F15D1FA
:10167000FB681B7B002B11D1FB689B6A23F48072F3
:10168000FB689A62FB689B6A03F48053002B05D1C8
:10169000FB689B6A43F00102FB689A62F868FFF7F7
:1016A00065FA04E0FB681B6A1B6B7868984700BF0B
:1016B0001037BD4680BD80B584B000AF78607B68D0
:1016C0005B6AFB60F868FFF7BCFD00BF1037BD46E2
:1016D00080BD80B584B000AF78607B685B6AFB60DA
:1016E000FB689B6A43F04002FB689A62FB68DB6A16
:1016F00043F00402FB68DA62F868FFF7ABFD00BF55
:101700001037BD4680BD000080B584B000AF786062
:101710000023FB737B6893F82430012B01D1022353
:1017200070E07B68012283F824207868FFF7EAFEE6
:101730000346FB73FB7B002B5FD17B689B6A23F422
:10174000405323F0010343F480527B689A627B6824
:101750001B682E4A934205D12D4B5B6803F470231E
:10176000002B06D17B689B6A23F480127B689A6207
:1017700005E07B689B6A43F480127B689A627B6811
:101780009B6A03F48073002B02D17B680022DA622B
:101790007B68002283F824207B681B686FF00402BA
:1017A0001A607B681B685B6803F48063002B28D198
:1017B0007B681B689B6803F4E043B3F5E04F13D1EB
:1017C0007B681B68114A934205D1114B5B6803F497
:1017D0007023002B08D17B681B689A687B681B68A4
:1017E00042F402129A600CE07B681B689A687B687E
:1017F0001B6842F400429A6003E07B68002283F891
:101800002420FB7B18461037BD4680BD00280140D0
:101810000024014090B587B000AF786039600023A4
:10182000FB6000237B61FFF77FFA38617B681B68F0
:101830009B6B03F44013002B2AD121E03B68B3F1EA
:10184000FF3F1DD03B68002B07D0FFF76DFA024623
:101850003B69D31A3A689A4212D27B681B681B68AC
:1018600003F00403002B0BD17B689B6A43F0040256
:101870007B689A627B68002283F824200323B1E00E
:101880007B681B681B6803F00403002BD6D070E054
:10189000564B1C68022001F05DFB0346B4FBF3F2DB
:1018A0007B681B681969524B0B40002B18D17B6871
:1018B0001B68D9684F4B0B40002B11D17B681B680C
:1018C00019694D4B0B40002B08D17B681B68D96808
:1018D0004A4B0B40002B01D1142320E029231EE0AA
:1018E0007B681B681969444B0B40002B06D17B6851
:1018F0001B68D968414B0B40002B0DD07B681B68DF
:1019000019693F4B0B40002B08D17B681B68D968D5
:101910003B4B0B40002B01D1542300E0FC2302FB86
:1019200003F37B6121E03B68B3F1FF3F1AD03B68D2
:10193000002B07D0FFF7F8F902463B69D31A3A6843
:101940009A420FD2FB687A699A420BD97B689B6AEC
:1019500043F004027B689A627B68002283F82420AB
:1019600003233FE0FB680133FB60FB687A699A421E
:10197000D9D87B681B686FF00E021A607B689B6A7F
:1019800043F400527B689A627B681B689B6803F48F
:10199000E043B3F5E04F12D07B681B685B6803F44B
:1019A0008063002B1DD17B681B689B6803F4602358
:1019B000B3F5602F15D17B681B7B002B11D17B68A1
:1019C0009B6A23F480527B689A627B689B6A03F46B
:1019D0008073002B05D17B689B6A43F001027B6812
:1019E0009A62002318461C37BD4690BD00000020B7
:1019F00024499224244992009224491292244900B5
:101A00004992240080B485B000AF7860396000232B
:101A1000FB603B68042B09D03B68042B15D83B685E
:101A2000022B0DD03B68032B05D00EE07B681B68B2
:101A30009B6CFB600EE07B681B685B6CFB6009E0E5
:101A40007B681B681B6CFB6004E07B681B68DB6BBE
:101A5000FB6000BFFB6818461437BD4680BC70476A
:101A600080B483B000AF786000BF0C37BD4680BC47
:101A70007047000090B484B000AF786039600023F4
:101A8000FB730023BB607B6893F82430012B01D1EA
:101A900002237DE17B68012283F824207B689B6818
:101AA000002B19D13B685B68012B0CD17B681B684C
:101AB0009B6B9B0D9B053A681268D1037A6812688C
:101AC0000B4393634FE07B689B6A43F020027B6883
:101AD0009A620123FB7346E03B685A683B681B69C6
:101AE0009A422AD87B681B68996B3B685A683B68A6
:101AF0001B69D21A13469B0013440F331F2202FAAC
:101B000003F343F44013DB4319403B681B69013B7B
:101B100018053B681C683B685A683B681B69D21A09
:101B200013469B0013440F3304FA03F340EA030205
:101B30007B681B680A439A6315E07B681B68996B96
:101B40003B685A683B681B69D21A13469B001344D2
:101B50000F331F2202FA03F343F44013DA437B6886
:101B60001B680A409A637B681B689B6803F001034B
:101B7000012B0CD07B681B689B6823F4E04323F0A7
:101B800001033A6891697A6812680B4393603B6875
:101B90005B7D012B15D13B689B69B3F5E04F08D104
:101BA0007B681B685A687B681B6842F480625A60D5
:101BB00007E07B689B6A43F020027B689A620123FE
:101BC000FB733B681B7D012B14D13B685B7D002BB5
:101BD00008D17B681B685A687B681B6842F4805296
:101BE0005A6007E07B689B6A43F020027B689A6238
:101BF0000123FB733B681B68092B1CD97B681B689E
:101C0000D9683B681A6813465B0013441E3B0722E1
:101C100002FA03F3DB4319403B6898683B681A6893
:101C200013465B0013441E3B00FA03F27B681B68FB
:101C30000A43DA6019E07B681B6819693B681A6817
:101C400013465B001344072202FA03F3DB431940F7
:101C50003B6898683B681A6813465B00134400FAB7
:101C600003F27B681B680A431A613B681B68102BF0
:101C700003D03B681B68112B07D17B681B689A68EF
:101C80007B681B6842F400029A603B685B68032B28
:101C900022D0032B2ED8012B02D0022B0ED029E00C
:101CA0007B681B685B6923F47F6323F00F033A684A
:101CB000D1687A6812680B43536129E07B681B681E
:101CC0009B6923F47F6323F00F033A68D1687A6835
:101CD00012680B4393611BE07B681B68DB6923F48C
:101CE0007F6323F00F033A68D1687A6812680B4368
:101CF000D3610DE07B681B681B6A23F47F6323F0CC
:101D00000F033A68D1687A6812680B43136200BF08
:101D10003B681B68102B03D03B681B68112B32D12A
:101D20007B681B681D4A934225D17B681B689B68B2
:101D300003F40003002B26D17B681B689A687B683C
:101D40001B6842F400029A603B681B68102B1AD192
:101D5000134B1B68134AA2FB03239A0C13469B00E8
:101D600013445B00BB6002E0BB68013BBB60BB6827
:101D7000002BF9D107E07B689B6A43F020027B6867
:101D80009A620123FB737B68002283F82420FB7B8B
:101D900018461037BD4690BC704700BF0024014074
:101DA0000000002083DE1B4380B485B000AF786064
:101DB0007B6803F00703FB600C4BDB68BB60BA6811
:101DC0004FF6FF031340BB60FB681A02BB68134366
:101DD00043F0BF6343F40033BB60044ABB68D36085
:101DE00000BF1437BD4680BC704700BF00ED00E067
:101DF00080B400AF044BDB681B0A03F007031846EE
:101E0000BD4680BC704700BF00ED00E080B483B0E9
:101E100000AF0346FB7197F90730002B0BDBFB7912
:101E200003F01F02064997F907305B09012000FA09
:101E300002F241F8232000BF0C37BD4680BC70473A
:101E400000E100E080B483B000AF03463960FB716D
:101E500097F90730002B0ADB3B68DAB20C4997F997
:101E600007301201D2B20B4483F800230AE03B682A
:101E7000DAB20849FB7903F00F03043B1201D2B236
:101E80000B441A7600BF0C37BD4680BC704700BFBC
:101E900000E100E000ED00E080B489B000AFF86040
:101EA000B9607A60FB6803F00703FB61FB69C3F16B
:101EB0000703042B28BF0423BB61FB690433062BF3
:101EC00002D9FB69033B00E000237B614FF0FF3246
:101ED000BB6902FA03F3DA43BB681A407B699A4094
:101EE0004FF0FF317B6901FA03F3D9437B680B4064
:101EF000134318462437BD4680BC704780B582B076
:101F000000AF78607B68013BB3F1807F01D3012390
:101F10000FE00A4A7B68013B53600F214FF0FF300E
:101F2000FFF790FF054B00229A60044B07221A60CE
:101F3000002318460837BD4680BD00BF10E000E012
:101F400080B582B000AF78607868FFF72DFF00BFE2
:101F50000837BD4680BD80B586B000AF0346B96086
:101F60007A60FB7300237B61FFF742FF78617A6838
:101F7000B9687869FFF790FF024697F90F3011466C
:101F80001846FFF75FFF00BF1837BD4680BD80B51C
:101F900082B000AF0346FB7197F907301846FFF790
:101FA00035FF00BF0837BD4680BD80B582B000AFA9
:101FB00078607868FFF7A2FF034618460837BD46E9
:101FC00080BD000080B485B000AF78600023FB6066
:101FD0007B68002B01D1012343E07B681B681A4614
:101FE000224B1344224AA2FB03231B099A007B685D
:101FF0001A647B681F4ADA637B68022283F8212017
:102000007B681B681B68FB60FB6823F47F5323F02D
:102010003003FB607B685A687B689B681A437B6867
:10202000DB681A437B681B691A437B685B691A4348
:102030007B689B691A437B68DB691343FA68134327
:10204000FB607B681B68FA681A607B6800229A63F1
:102050007B68012283F821207B68002283F82020FE
:10206000002318461437BD4680BC7047F8FFFDBFFB
:10207000CDCCCCCC0000024080B586B000AFF8607B
:10208000B9607A603B600023FB75FB6893F82030F1
:10209000012B01D102234BE0FB68012283F82020B1
:1020A000FB6893F82130DBB2012B3AD1FB680222A6
:1020B00083F82120FB6800229A63FB681B681A687A
:1020C000FB681B6822F001021A603B687A68B968F5
:1020D000F86800F037F9FB68DB6A002B08D0FB6872
:1020E0001B681A68FB681B6842F00E021A600FE05A
:1020F000FB681B681A68FB681B6822F004021A6000
:10210000FB681B681A68FB681B6842F00A021A60C9
:10211000FB681B681A68FB681B6842F001021A60C2
:1021200005E0FB68002283F820200223FB75FB7D7D
:1021300018461837BD4680BD80B584B000AF7860C2
:102140007B68DB6B1B68FB607B681B681B68BB6084
:102150007B681B6C04229A40FB681340002B4FD015
:10216000BB6803F00403002B4AD07B681B681B6824
:1021700003F02003002B07D17B681B681A687B687B
:102180001B6822F004021A607B681B68664A93424F
:1021900029D07B681B68654A934222D07B681B6804
:1021A000634A93421AD07B681B68624A934212D0FA
:1021B0007B681B68604A93420AD07B681B685F4A51
:1021C000934202D14FF480030EE04FF080630BE0A6
:1021D0004FF4802308E04FF4804305E04FF4806320
:1021E00002E0402300E00423554A53607B68DB6A29
:1021F000002B00F094807B68DB6A786898478EE05B
:102200007B681B6C02229A40FB681340002B56D05F
:10221000BB6803F00203002B51D07B681B681B686E
:1022200003F02003002B0BD17B681B681A687B68C6
:102230001B6822F00A021A607B68012283F82120C1
:102240007B681B68384A934229D07B681B68374AF1
:10225000934222D07B681B68354A93421AD07B6830
:102260001B68344A934212D07B681B68324A9342FF
:102270000AD07B681B68314A934202D14FF40013A5
:102280000EE04FF000730BE04FF4003308E04FF422
:10229000005305E04FF4007302E0202300E0022326
:1022A000274A53607B68002283F820207B689B6A62
:1022B000002B34D07B689B6A786898472FE07B6856
:1022C0001B6C08229A40FB681340002B28D0BB6887
:1022D00003F00803002B23D07B681B681A687B6817
:1022E0001B6822F00E021A607B681A6C7B68DB6B3D
:1022F000012101FA02F25A607B6801229A637B682D
:10230000012283F821207B68002283F820207B684B
:102310001B6B002B04D07B681B6B7868984700BF51
:1023200000BF1037BD4680BD080002401C000240BF
:102330003000024044000240580002406C0002405D
:102340000000024080B485B000AFF860B9607A60E8
:102350003B60FB681A6CFB68DB6B012101FA02F23F
:102360005A60FB681B683A685A60FB685B68102B10
:1023700008D1FB681B687A689A60FB681B68BA68BA
:10238000DA6007E0FB681B68BA689A60FB681B6844
:102390007A68DA6000BF1437BD4680BC7047000021
:1023A00080B48BB000AF7860396000237B6200237B
:1023B0003B6269E101227B6A02FA03F3FB613B683D
:1023C0001B68FA691340BB61BA69FB699A4240F025
:1023D00058813B685B689A4A93425ED0984A934220
:1023E00075D8984A934258D0964A93426FD8964AE5
:1023F000934252D0944A934269D8944A93424CD023
:10240000924A934263D8924A934246D0904A93426A
:102410005DD8122B2AD8122B59D801A252F823F0DA
:102420009B2400087524000887240008C92400089C
:10243000CF240008CF240008CF240008CF240008B0
:10244000CF240008CF240008CF240008CF240008A0
:10245000CF240008CF240008CF240008CF24000890
:10246000CF2400087D24000891240008794A934273
:1024700013D02CE03B68DB683B6229E03B68DB68FB
:1024800004333B6224E03B68DB6808333B621FE0B7
:102490003B68DB680C333B621AE03B689B68002BAF
:1024A00002D104233B6213E03B689B68012B05D1FA
:1024B00008233B627B68FA691A6109E008233B62E2
:1024C0007B68FA695A6103E000233B6200E000BFC9
:1024D000BB69FF2B01D87B6801E07B6804337B611B
:1024E000BB69FF2B02D87B6A9B0002E07B6A083B3A
:1024F0009B003B617B691A680F213B6901FA03F37A
:10250000DB431A40396A3B6901FA03F31A437B69DA
:102510001A603B685B6803F08053002B00F0B180C9
:102520004D4B9B694C4A43F0010393614A4B9B69B5
:1025300003F00103BB60BB68484A7B6A9B08023317
:1025400052F82330FB607B6A03F003039B000F22E9
:1025500002FA03F3DB43FA681340FB607B68404AEE
:10256000934213D07B683F4A93420DD07B683E4A2A
:10257000934207D07B683D4A934201D1032306E092
:10258000042304E0022302E0012300E000237A6A2E
:1025900002F0030292009340FA681343FB602F4954
:1025A0007B6A9B080233FA6841F823203B685B682A
:1025B00003F48033002B06D02D4B1A682C49BB69DD
:1025C00013430B6006E02A4B1A68BB69DB432849BA
:1025D00013400B603B685B6803F40033002B06D0AC
:1025E000234B5A682249BB6913434B6006E0204BDA
:1025F0005A68BB69DB431E4913404B603B685B680C
:1026000003F48013002B06D0194B9A681849BB6954
:1026100013438B6006E0164B9A68BB69DB43144991
:1026200013408B603B685B6803F40013002B21D0E0
:102630000F4BDA680E49BB691343CB6021E000BF42
:1026400000003210000031100000221000002110A4
:1026500000001210000011100010024000000140A4
:1026600000080140000C014000100140001401402E
:10267000000401400B4BDA68BB69DB430949134096
:10268000CB607B6A01337B623B681A687B6A22FA03
:1026900003F3002B7FF48EAE00BF00BF2C37BD4686
:1026A00080BC70470004014080B485B000AF786002
:1026B0000B467B807B68DB68FB607A88FB68134095
:1026C0001A04FB68D9437B880B401A437B681A6164
:1026D00000BF1437BD4680BC7047000080B582B093
:1026E00000AF0346FB80084B5A69FB881340002B60
:1026F00006D0054AFB885361FB88184600F006F8AF
:1027000000BF0837BD4680BD0004014080B483B0DF
:1027100000AF0346FB8000BF0C37BD4680BC70474E
:1027200080B586B000AF78607B68002B01D10123B3
:1027300072E27B681B6803F00103002B00F08780C6
:10274000924B5B6803F00C03042B0CD08F4B5B683F
:1027500003F00C03082B12D18C4B5B6803F480331D
:10276000B3F5803F0BD1894B1B6803F40033002B7A
:102770006CD07B685B68002B68D101234CE27B68DE
:102780005B68B3F5803F06D1804B1B687F4A43F4FA
:10279000803313602EE07B685B68002B0CD17B4B91
:1027A0001B687A4A23F480331360784B1B68774A9E
:1027B00023F4802313601DE07B685B68B3F5A02FD2
:1027C0000CD1724B1B68714A43F4802313606F4B2A
:1027D0001B686E4A43F4803313600BE06B4B1B683D
:1027E0006A4A23F480331360684B1B68674A23F4FA
:1027F000802313607B685B68002B13D0FEF794FA8C
:10280000386108E0FEF790FA02463B69D31A642B60
:1028100001D9032300E25D4B1B6803F40033002B56
:10282000F0D014E0FEF780FA386108E0FEF77CFA99
:1028300002463B69D31A642B01D90323ECE1534BC5
:102840001B6803F40033002BF0D100E000BF7B686D
:102850001B6803F00203002B63D04C4B5B6803F052
:102860000C03002B0BD0494B5B6803F00C03082BC7
:102870001CD1464B5B6803F48033002B16D1434BCD
:102880001B6803F00203002B05D07B681B69012B3A
:1028900001D00123C0E13D4B1B6823F0F8027B68A7
:1028A0005B69DB00394913430B603AE07B681B69C5
:1028B000002B20D0364B01221A60FEF735FA386122
:1028C00008E0FEF731FA02463B69D31A022B01D920
:1028D0000323A1E12D4B1B6803F00203002BF0D072
:1028E0002A4B1B6823F0F8027B685B69DB002749F1
:1028F00013430B6015E0264B00221A60FEF714FA12
:10290000386108E0FEF710FA02463B69D31A022B41
:1029100001D9032380E11D4B1B6803F00203002B48
:10292000F0D17B681B6803F00803002B3AD07B686A
:102930009B69002B19D0174B01221A60FEF7F4F99E
:10294000386108E0FEF7F0F902463B69D31A022B22
:1029500001D9032360E10D4B5B6A03F00203002BF6
:10296000F0D0012000F0D8FA1CE00A4B00221A60D7
:10297000FEF7DAF938610FE0FEF7D6F902463B6957
:10298000D31A022B08D9032346E100BF00100240EE
:102990000000424280044242924B5B6A03F0020311
:1029A000002BE9D17B681B6803F00403002B00F0C7
:1029B000A6800023FB758B4BDB6903F08053002B53
:1029C0000DD1884BDB69874A43F08053D361854B37
:1029D000DB6903F08053BB60BB680123FB75824B4E
:1029E0001B6803F48073002B18D17F4B1B687E4A51
:1029F00043F480731360FEF797F9386108E0FEF73F
:102A000093F902463B69D31A642B01D9032303E1EE
:102A1000754B1B6803F48073002BF0D07B68DB6878
:102A2000012B06D16F4B1B6A6E4A43F00103136200
:102A30002DE07B68DB68002B0CD16A4B1B6A694A6E
:102A400023F001031362674B1B6A664A23F00403F9
:102A500013621CE07B68DB68052B0CD1614B1B6AA1
:102A6000604A43F0040313625E4B1B6A5D4A43F005
:102A7000010313620BE05B4B1B6A5A4A23F001030C
:102A80001362584B1B6A574A23F0040313627B6896
:102A9000DB68002B15D0FEF747F938610AE0FEF736
:102AA00043F902463B69D31A41F28832934201D975
:102AB0000323B1E04B4B1B6A03F00203002BEED063
:102AC00014E0FEF731F938610AE0FEF72DF902460D
:102AD0003B69D31A41F28832934201D903239BE028
:102AE000404B1B6A03F00203002BEED1FB7D012B50
:102AF00005D13C4BDB693B4A23F08053D3617B68B3
:102B0000DB69002B00F08780364B5B6803F00C0319
:102B1000082B61D07B68DB69022B46D1334B002246
:102B20001A60FEF701F9386108E0FEF7FDF8024689
:102B30003B69D31A022B01D903236DE0294B1B6893
:102B400003F00073002BF0D17B681B6AB3F5803F64
:102B500008D1244B5B6823F400327B689B682149D1
:102B600013434B601F4B5B6823F474127B68196A34
:102B70007B685B6A0B431B4913434B601B4B012271
:102B80001A60FEF7D1F8386108E0FEF7CDF802468A
:102B90003B69D31A022B01D903233DE0114B1B687B
:102BA00003F00073002BF0D035E0104B00221A60C8
:102BB000FEF7BAF8386108E0FEF7B6F802463B695E
:102BC000D31A022B01D9032326E0064B1B6803F01E
:102BD0000073002BF0D11EE07B68DB69012B07D16D
:102BE000012319E0001002400070004060004242E2
:102BF0000B4B5B68FB60FB6803F480327B681B6AED
:102C00009A4206D1FB6803F470127B685B6A9A42B1
:102C100001D0012300E0002318461837BD4680BDCF
:102C20000010024080B584B000AF786039607B68E6
:102C3000002B01D10123D0E06A4B1B6803F007038E
:102C40003A689A4210D9674B1B6823F0070265491E
:102C50003B6813430B60634B1B6803F007033A6840
:102C60009A4201D00123B8E07B681B6803F002039D
:102C7000002B20D07B681B6803F00403002B05D0D9
:102C8000594B5B68584A43F4E06353607B681B68A8
:102C900003F00803002B05D0534B5B68524A43F402
:102CA00060535360504B5B6823F0F0027B689B6875
:102CB0004D4913434B607B681B6803F00103002BF5
:102CC00040D07B685B68012B07D1474B1B6803F43E
:102CD0000033002B15D101237FE07B685B68022B5A
:102CE00007D1414B1B6803F00073002B09D101236E
:102CF00073E03D4B1B6803F00203002B01D101235D
:102D00006BE0394B5B6823F003027B685B683649F4
:102D100013434B60FEF708F8F8600AE0FEF704F88A
:102D20000246FB68D31A41F28832934201D9032349
:102D300053E02D4B5B6803F00C027B685B689B00E3
:102D40009A42EBD1274B1B6803F007033A689A427B
:102D500010D2244B1B6823F0070222493B6813431F
:102D60000B60204B1B6803F007033A689A4201D0BE
:102D7000012332E07B681B6803F00403002B08D0BA
:102D8000194B5B6823F4E0627B68DB6816491343E8
:102D90004B607B681B6803F00803002B09D0124BC3
:102DA0005B6823F460527B681B69DB000E491343A8
:102DB0004B6000F021F802460B4B5B681B0903F0E7
:102DC0000F030A49CB5C22FA03F3094A1360094B4B
:102DD0001B681846FDF766FF002318461037BD46EE
:102DE00080BD00BF0020024000100240106D0008AE
:102DF000000000200400002090B48AB000AF294BEE
:102E00003C1D0FCB84E80F0040F201233B800023E0
:102E1000FB610023BB6100237B6200237B610023F5
:102E20003B62214B5B68FB61FB6903F00C03042BE5
:102E300002D0082B03D02BE01C4B3B622BE0FB693C
:102E40009B0C03F00F0328333B4413F8243C7B61B5
:102E5000FB6903F48033002B12D0134B5B685B0CCF
:102E600003F0010328333B4413F8283CBB617B6922
:102E70000E4A03FB02F2BB69B2FBF3F37B6204E090
:102E80007B690B4A02FB03F37B627B6A3B6202E0D5
:102E9000064B3B6200BF3B6A18462837BD4690BCD4
:102EA000704700BFF06C00080010024000127A006A
:102EB00000093D0080B400AF024B1B681846BD46B8
:102EC00080BC70470000002080B500AFFFF7F2FF24
:102ED0000246054B5B681B0A03F007030349CB5C02
:102EE00022FA03F3184680BD00100240206D00084E
:102EF00080B500AFFFF7DEFF0246054B5B68DB0ADB
:102F000003F007030349CB5C22FA03F3184680BDA4
:102F100000100240206D000880B485B000AF7860DA
:102F20000A4B1B680A4AA2FB03235B0A7A6802FB6E
:102F300003F3FB6000BFFB685A1EFA60002BF9D157
:102F400000BF00BF1437BD4680BC704700000020A2
:102F5000D34D621090B58DB000AF7860584B07F13B
:102F60000C040FCB84E80F0040F201233B810023C7
:102F70007B620023FB6200233B620023FB61002392
:102F8000BB627B68102B0AD07B68102B00F28E800E
:102F90007B68012B49D07B68022B79D086E0494BB6
:102FA0005B68FB61474B1B6803F08073002B7FD08D
:102FB000FB699B0C03F00F0330333B4413F8243CB4
:102FC0003B62FB6903F48033002B17D03D4B5B68F9
:102FD0005B0C03F0010330333B4413F8283C7B6265
:102FE000FB6903F48033002B0DD0374A7B6AB2FBB8
:102FF000F3F23B6A02FB03F3FB6204E03B6A334AF1
:1030000002FB03F3FB622F4B5B6803F48003B3F511
:10301000800F02D1FB6ABB624AE0FB6A5B002C4A6C
:10302000A2FB03235B08BB6242E0264B1B6AFB61E9
:10303000FB6903F44073B3F5807F08D1FB6903F0AB
:103040000203002B03D04FF40043BB621FE0FB6977
:1030500003F44073B3F5007F09D11A4B5B6A03F0A8
:103060000203002B03D049F64043BB620FE0FB692B
:1030700003F44073B3F5407F1CD1124B1B6803F47B
:103080000033002B16D04FF22443BB6212E011E054
:10309000FFF72EFF02460B4B5B689B0B03F003030D
:1030A00001335B00B2FBF3F3BB6204E000BF02E05C
:1030B00000BF00E000BFBB6A18463437BD4690BD74
:1030C000006D00080010024000127A0000093D0067
:1030D000ABAAAAAA80B582B000AF78607B68002B4B
:1030E00001D1012341E07B6893F83D30DBB2002B36
:1030F00006D17B68002283F83C20786800F039F81C
:103100007B68022283F83D207B681A687B68043361
:103110001946104600F044F97B68012283F84620E6
:103120007B68012283F83E207B68012283F83F20E0
:103130007B68012283F840207B68012283F84120CC
:103140007B68012283F842207B68012283F84320B8
:103150007B68012283F844207B68012283F84520A4
:103160007B68012283F83D20002318460837BD46BE
:1031700080BD80B483B000AF786000BF0C37BD461F
:1031800080BC704780B485B000AF78607B6893F8EE
:103190003D30DBB2012B01D0012332E07B680222FB
:1031A00083F83D207B681B68184A93420ED07B68E9
:1031B0001B68B3F1804F09D07B681B68144A9342A7
:1031C00004D07B681B68134A934211D17B681B684B
:1031D0009B6803F00703FB60FB68062B10D07B683D
:1031E0001B681A687B681B6842F001021A6007E0DE
:1031F0007B681B681A687B681B6842F001021A60D2
:10320000002318461437BD4680BC7047002C01408F
:10321000000400400008004080B584B000AF786032
:1032200039607B6893F83C30012B01D10223B3E075
:103230007B68012283F83C207B68022283F83D20D2
:103240007B681B689B68FB60FB6823F07703FB606F
:10325000FB6823F47F43FB607B681B68FA689A6015
:103260003B681B68B3F5005F3ED0B3F5005F00F22A
:103270008780B3F5805F00F08580B3F5805F7FD8ED
:10328000702B1AD0702B7BD8602B50D0602B77D846
:10329000502B3CD0502B73D8402B58D0402B6FD89C
:1032A000302B64D0302B6BD8202B60D0202B67D8EC
:1032B000002B5CD0102B5AD062E07B6818683B680A
:1032C00099683B685A683B68DB6800F042F97B68A4
:1032D0001B689B68FB60FB6843F07703FB607B68BF
:1032E0001B68FA689A604EE07B6818683B689968CA
:1032F0003B685A683B68DB6800F02BF97B681B6809
:103300009A687B681B6842F480429A603BE07B6865
:1033100018683B6859683B68DB681A4600F0A2F8F9
:103320007B681B685021184600F0F9F82BE07B6899
:1033300018683B6859683B68DB681A4600F0C0F8BB
:103340007B681B686021184600F0E9F81BE07B6889
:1033500018683B6859683B68DB681A4600F082F8D9
:103360007B681B684021184600F0D9F80BE07B68A9
:103370001A683B681B681946104600F0D0F802E056
:1033800000BF00E000BF7B68012283F83D207B681E
:10339000002283F83C20002318461037BD4680BD2C
:1033A00080B485B000AF786039607B681B68FB60D3
:1033B0007B68294A93420BD07B68B3F1804F07D0DA
:1033C0007B68264A934203D07B68254A934208D102
:1033D000FB6823F07003FB603B685B68FA6813438B
:1033E000FB607B681C4A93420BD07B68B3F1804F33
:1033F00007D07B68194A934203D07B68184A9342EE
:1034000008D1FB6823F44073FB603B68DB68FA6813
:103410001343FB60FB6823F080023B685B69134346
:10342000FB607B68FA681A603B689A687B68DA62BE
:103430003B681A687B689A627B68074A934203D1AB
:103440003B681A697B681A637B6801225A6100BF76
:103450001437BD4680BC7047002C0140000400407A
:103460000008004080B487B000AFF860B9607A60AF
:10347000FB681B6A7B61FB681B6A23F00102FB6827
:103480001A62FB689B693B613B6923F0F0033B6177
:103490007B681B013A6913433B617B6923F00A0394
:1034A0007B617A69BB6813437B61FB683A699A6107
:1034B000FB687A691A6200BF1C37BD4680BC704742
:1034C00080B487B000AFF860B9607A60FB681B6AAF
:1034D00023F01002FB681A62FB689B697B61FB6842
:1034E0001B6A3B617B6923F470437B617B681B0330
:1034F0007A6913437B613B6923F0A0033B61BB689E
:103500001B013A6913433B61FB687A699A61FB6866
:103510003A691A6200BF1C37BD4680BC704780B450
:1035200085B000AF786039607B689B68FB60FB68A2
:1035300023F07003FB603A68FB68134343F0070312
:10354000FB607B68FA689A6000BF1437BD4680BC98
:10355000704780B487B000AFF860B9607A603B60B4
:10356000FB689B687B617B6923F47F437B613B68DD
:103570001A027B681A43BB6813437A6913437B6161
:10358000FB687A699A6000BF1C37BD4680BC7047F3
:1035900080B485B000AF786039607B6893F83C30C8
:1035A000012B01D1022346E07B68012283F83C20F5
:1035B0007B68022283F83D207B681B685B68FB60A8
:1035C0007B681B689B68BB60FB6823F07003FB6033
:1035D0003B681B68FA681343FB607B681B68FA68EA
:1035E0005A607B681B68164A93420ED07B681B6842
:1035F000B3F1804F09D07B681B68124A934204D014
:103600007B681B68104A93420CD1BB6823F080038F
:10361000BB603B685B68BA681343BB607B681B6830
:10362000BA689A607B68012283F83D207B6800229B
:1036300083F83C20002318461437BD4680BC7047F1
:10364000002C0140000400400008004080B582B01A
:1036500000AF78607B68002B01D101233FE07B68DD
:1036600093F83D30DBB2002B06D17B68002283F853
:103670003C20786800F037F87B68242283F83D20EE
:103680007B681B68DA687B681B6822F40052DA608A
:10369000786800F00DF97B681B681A697B681B6805
:1036A00022F490421A617B681B685A697B681B6828
:1036B00022F02A025A617B681B68DA687B681B6803
:1036C00042F40052DA607B6800221A647B68202290
:1036D00083F83D207B68202283F83E200023184693
:1036E0000837BD4680BD80B483B000AF786000BFAE
:1036F0000C37BD4680BC704780B58AB002AFF86019
:10370000B9603B601346FB8000237B61FB6893F844
:103710003D30DBB2202B7CD1BB68002B02D0FB8874
:10372000002B01D1012375E0FB6893F83C30012B9D
:1037300001D102236EE0FB68012283F83C20FB6884
:1037400000221A64FB68212283F83D20FDF7ECFA81
:103750007861FB68FA889A84FB68FA88DA84FB68E7
:103760009B68B3F5805F08D1FB681B69002B04D10F
:103770000023FB61BB68BB6103E0BB68FB61002306
:10378000BB61FB68002283F83C202AE03B68009381
:103790007B6900228021F86800F040F80346002B86
:1037A00001D0032336E0FB69002B0BD1BB691B88DA
:1037B0001A46FB681B68C2F308025A60BB690233F1
:1037C000BB6107E0FB691A78FB681B685A60FB69FC
:1037D0000133FB61FB68DB8C9BB2013B9AB2FB6857
:1037E000DA84FB68DB8C9BB2002BCFD13B68009363
:1037F0007B6900224021F86800F010F80346002B96
:1038000001D0032306E0FB68202283F83D2000233B
:1038100000E0022318462037BD4680BD80B584B045
:1038200000AFF860B9603B601346FB712CE0BB69E8
:10383000B3F1FF3F28D0BB69002B07D0FDF774FA26
:1038400002463B68D31ABA699A421DD2FB681B68CC
:10385000DA68FB681B6822F4D072DA60FB681B68C8
:103860005A69FB681B6822F001025A61FB6820223A
:1038700083F83D20FB68202283F83E20FB6800226D
:1038800083F83C2003230FE0FB681B681A68BB68C1
:103890001340BA689A420CBF01230023DBB21A46D8
:1038A000FB799A42C3D0002318461037BD4680BD2D
:1038B00080B584B000AF78607B681B681B6923F417
:1038C00040517B68DA687B681B680A431A617B6831
:1038D0009A687B681B691A437B685B691343BB600A
:1038E0007B681B68DB6823F4B05323F00C037A6811
:1038F0001268B9680B43D3607B681B685B6923F46B
:1039000040717B689A697B681B680A435A617B68CF
:103910001B682C4A934203D1FFF7EAFAF86002E0F1
:10392000FFF7D2FAF860FA6813469B0013449A0036
:103930001A447B685B689B00B2FBF3F3224AA2FB4C
:1039400003235B091901FA6813469B0013449A008C
:103950001A447B685B689B00B2FBF3F21A4BA3FB33
:1039600002035B09642000FB03F3D31A1B0132330B
:10397000154AA2FB03235B0903F0F0031944FA681C
:1039800013469B0013449A001A447B685B689B00B3
:10399000B2FBF3F20C4BA3FB02035B09642000FBB8
:1039A00003F3D31A1B013233074AA2FB03235B093B
:1039B00003F00F027B681B680A449A6000BF10374F
:1039C000BD4680BD003801401F85EB5180B586B0F3
:1039D00000AF07F1080300221A605A609A60DA60AB
:1039E0000D4B9B690C4A43F0040393610A4B9B699E
:1039F00003F004037B607B680323FB600E23BB6042
:103A000000233B6107F1080319460448FEF7C8FC90
:103A100000BF1837BD4680BD0010024000080140BD
:103A200080B584B000AF324B9B69314A43F40073D8
:103A300093612F4B9B6903F400733B603B682D4BF4
:103A40002D4A1A602B4B00225A602A4B4FF4807289
:103A50009A60284B00221A73264B03221A61254BC9
:103A600000221A75234B4FF40022DA612148FDF73A
:103A700065F90346002B01D0002335E03B1D0022F1
:103A80001A605A609A6001237B600123BB600323A4
:103A9000FB603B1D19461748FDF7E6FB0346002B6C
:103AA00001D0002320E002237B600223BB600323BC
:103AB000FB603B1D19460F48FDF7D6FB0346002B64
:103AC00001D0002310E003237B600323BB600323AA
:103AD000FB603B1D19460748FDF7C6FB0346002B5C
:103AE00001D0002300E0012318461037BD4680BDF9
:103AF00000100240080200200024014080B582B07E
:103B000000AF1E4B5B691D4A43F0010353611B4B21
:103B10005B6903F001037B607B68194B194A1A60EB
:103B2000174B00225A60164B00229A60144B8022D9
:103B3000DA60134B4FF480721A61114B4FF48062BC
:103B40005A610F4B20229A610D4B4FF48052DA617B
:103B50000B48FEF737FA0C4B094A1A62084B0A4A1F
:103B60005A62002205210B20FEF7F5F90B20FEF723
:103B70000EFA00BF0837BD4680BD00BF00100240EE
:103B800038020020080002400802002080B588B0FA
:103B900000AF0346FB7107F1080300221A605A6068
:103BA0009A60DA601A615A61154BBB604FF47A6310
:103BB0007B614FF47A73BB61FB79FB6001233B743B
:103BC00007F1080319460F48FDF746FC0346002B92
:103BD00001D0002310E00B4B1B685A68094B1B688F
:103BE00042F040025A60002205211220FEF7B3F98C
:103BF0001220FEF7CCF9012318462037BD4680BDC0
:103C0000000280000802002080B58AB000AF0346A1
:103C1000FB7107F10C0300221A605A609A60DA60A7
:103C20001A615A619A61FB79FB6001233B610123B0
:103C3000FB6103237B614FF4E0437B62012387F840
:103C40002130002387F820300023BB6107F10C03EB
:103C500019460648FDF70EFF0346002B01D000234E
:103C600000E0012318462837BD4680BD0802002029
:103C700080B586B000AF134B9B69124A43F008032E
:103C80009361104B9B6903F008037B607B6807F12D
:103C9000080300221A605A609A60DA600123FB6010
:103CA0004FF4C043BB6000233B6102237B6107F1FB
:103CB000080319460448FEF773FB00BF1837BD46DA
:103CC00080BD00BF00100240000C014080B500AF75
:103CD0004FF400510248FEF7E7FC00BF80BD00BF73
:103CE000000C014080B586B000AF124B9B69114AB1
:103CF00043F0040393610F4B9B6903F004037B6063
:103D00007B6807F1080300221A605A609A60DA6043
:103D10000023FB600123BB6000233B6102237B6126
:103D200007F1080319460448FEF73AFB00BF1837AD
:103D3000BD4680BD001002400008014080B588B03B
:103D400000AF204B9B691F4A43F0040393611D4B56
:103D50009B6903F00403BB60BB6807F10C030022FE
:103D60001A605A609A60DA6000233B614FF40143A5
:103D7000FB6000237B610223BB6107F10C03194642
:103D80001148FEF70DFB0F4B9B690E4A43F00103F0
:103D900093610C4B9B6903F001037B607B680B4BC9
:103DA0005B68FB61FB6923F0E063FB61FB6943F047
:103DB0008063FB61054AFB69536000BF2037BD4645
:103DC00080BD00BF0010024000080140000001401B
:103DD00080B590B000AF07F11803282200211846E3
:103DE00000F056F93B1D00221A605A609A60DA60B2
:103DF0001A610123BB614FF48033FB6100233B62F6
:103E000002237B634FF48033BB634FF4E013FB6307
:103E100007F118031846FEF783FC0346002B01D078
:103E2000002314E00F237B600223BB600023FB60B0
:103E300080233B6100237B613B1D02211846FEF776
:103E4000F1FE0346002B01D0002300E001231846B9
:103E50004037BD4680BD000080B58AB000AF7860B5
:103E60002C4BDB692B4A43F00203D361294BDB69FE
:103E700003F00203FB60FB68274B284A1A60264BBD
:103E800000229A60244B41F61F42DA607A6813469A
:103E90009B0013445B00013B1F4A53601E4B0022F2
:103EA0001A611D4B00229A611B48FFF713F9034664
:103EB000002B01D0002329E007F1180300221A602B
:103EC0005A609A60DA604FF48053BB6107F11803BF
:103ED00019461148FFF7A0F90346002B01D0002333
:103EE00014E007F1100300221A605A6020233B619E
:103EF00000237B6107F1100319460748FFF748FBD1
:103F00000346002B01D0002300E001231846283788
:103F1000BD4680BD001002407C020020000400402D
:103F200080B586B000AF154B9B69144A43F004037B
:103F30009361124B9B6903F004037B607B684FF431
:103F40000073BB600223FB6003237B6107F108035E
:103F500019460B48FEF724FA4FF48063BB60002338
:103F6000FB6000233B6107F1080319460448FEF794
:103F700017FA00BF1837BD4680BD00BF00100240D1
:103F80000008014080B582B000AF194B9B69184A08
:103F900043F480439361164B9B6903F480437B6039
:103FA0007B68144B144A1A60124B4FF4E1325A608A
:103FB000104B00229A610F4B00229A600D4B002299
:103FC000DA600C4B00221A610A4B0C225A61094B31
:103FD0000022DA610748FFF739FB0346002B01D0C6
:103FE000002300E0012318460837BD4680BD00BF0E
:103FF00000100240C4020020003801400C480D4966
:104000000D4A002302E0D458C4500433C4188C4233
:10401000F9D30A4A0A4C002301E013600432A24299
:10402000FBD3FCF71DFE00F00FF8FCF72DFD7047E9
:1040300000000020DC0100200C710008DC010020E1
:104040001C030020FEE7000070B500260C4D0D4C4F
:10405000641BA410A64209D102F004FE00260A4DFA
:104060000A4C641BA410A64205D170BD55F8043B50
:1040700098470136EEE755F8043B98470136F2E7DA
:104080000471000804710008047100080871000838
:1040900003460244934200D1704703F8011BF9E73D
:1040A000002B2DE9F0471F46BBBF03F100431F461D
:1040B00000232D2388B01446129A109D1370149B70
:1040C000DDF84CA023F02008B8F1460F05D0B8F178
:1040D000450F00D10135022300E0032307AA049213
:1040E00006AACDE902A2CDE9003522463B4600F002
:1040F00013FEB8F1470F064602D1119BDB0722D50C
:10410000B8F1460F06EB050910D13378302B0AD1F0
:104110000022002320463946FCF746FC18B9C5F1B9
:104120000105CAF80050DAF8003099440022002353
:1041300020463946FCF738FC08B1CDF81C903022F7
:10414000079B4B4507D33046079B159A9B1B136073
:1041500008B0BDE8F087591C07911A70F0E70346D4
:10416000F7B5002903F8022BB6BF2D222B224942B6
:10417000092942702BDD0DF10704A4460A2791FBA3
:10418000F7F60A46A64607FB1615632A05F1300521
:10419000314604F1FF340EF8015CF0DC3031AEF151
:1041A000020504F8011C2946441C61450AD30DF19F
:1041B0000902A2EB0E02654588BF00221344181ABB
:1041C00003B0F0BD11F8012B04F8012FEDE7302307
:1041D00030318370C170031DF1E700002DE9F04F0D
:1041E00091B00C46DDF8688016461F46054601F082
:1041F00035FD036818460993FBF7AAFF00230E93C9
:10420000D8F800300A90073323F0070303F10802BF
:1042100094F81890D4F800B0C8F80020D3E900232F
:10422000C4E91223D4E9128A2AF000430B934FF019
:10423000FF3240469C4B0B99FCF7E8FB70BB4FF0FC
:10424000FF324046984B0B99FCF7C2FB30BB002273
:10425000002340465146FCF7B1FB10B12D2384F8F2
:104260004330924B9248B9F1470F94BF984680462D
:1042700003234FF0000A23612BF00403236033462D
:104280002146284600970FAA00F0D4F9013040F0EB
:1042900090804FF0FF3011B0BDE8F08F424653469A
:1042A00040465146FCF7B2FB48B1BAF1000FB8BF27
:1042B0002D238048B8BF84F843307F4BD3E7636831
:1042C00009F0DF015A1C42D10623636000220692E6
:1042D0000EAACDE904920DAA4BF4806303920DF16E
:1042E0003302CDE9013223606368424600932846D9
:1042F00053460B91FFF7D4FE0B99804647290D9941
:1043000008D1C81C02DB6368994240DDA9F10209AB
:104310005FFA89F9B9F1650F1FD84A46013904F1EE
:1043200050000D91FFF71BFF0E9A82461318012AC9
:10433000236102DC2268D20701D5013323619DF895
:104340003330002B9BD02D2384F8433097E7472947
:10435000BCD1002BBAD10123B7E7B9F1660F18D150
:10436000002963680BDD216113B92268D00702D5EB
:1043700001330B4423614FF0000AA165DFE713B955
:104380002268D20701D50233F4E70123F2E74FF0A8
:1043900067090E9B994205DB23682161D807EAD59E
:1043A0004B1CE7E70029CCBF0122C1F102021344F4
:1043B000E0E723685A0507D4236942463146284678
:1043C000B84701302BD164E7B9F1650F40F2DD80C9
:1043D000D4E9120100220023FCF7E6FA002833D0CA
:1043E000012331462846354AB84701303FF451AFE2
:1043F000DDE90D239A4202DB2368D8070FD5DDE9FA
:10440000092331462846B84701303FF442AF4FF008
:10441000000804F11A090E9B013B434509DC23689F
:104420009B0700F10281E0680F9B9842B8BF1846D5
:1044300031E701234A4631462846B84701303FF468
:1044400028AF08F10108E6E70D9B002B38DC0123BB
:1044500031462846194AB84701303FF41AAFDDE922
:104460000D23134302D12368D907D8D5DDE90923E9
:1044700031462846B84701303FF40BAF4FF00009F2
:1044800004F11A0A0D9B5B424B4501DC0E9B94E73D
:104490000123524631462846B84701303FF4F9AE71
:1044A00009F10109EEE700BFFFFFEF7F2C6D000867
:1044B000306D0008386D0008346D00083C6D000850
:1044C0000E9AA36D9A42A8BF1A46002A914637DC7D
:1044D0004FF0000B29EAE97904F11A02D4F858A048
:1044E000AAEB09035B4533DCDDE90D239A423BDB94
:1044F0002368DA0738D40E9B0D99A3EB0A02A3EBCD
:1045000001099145A8BF9146B9F1000F34DC4FF085
:10451000000829EAE97904F11A0ADDE90D239B1A5A
:10452000A3EB090343457FF77AAF01235246314697
:104530002846B84701303FF4ACAE08F10108ECE77B
:104540001346314642462846B8470130C0D1A0E65E
:104550000123314628460B92B84701303FF499AE0B
:104560000B9A0BF1010BB9E73146DDE90923284627
:10457000B8470130BFD18CE64B463146284608EBA0
:104580000A02B8470130C2D183E60E9A012A01DC43
:10459000DB0737D50123424631462846B84701306C
:1045A0003FF477AEDDE9092331462846B8470130AC
:1045B0003FF46FAED4E9120100220023FCF7F4F9B6
:1045C000D8B90E9B08F10102013B31462846B84795
:1045D00001300ED15DE601234A4631462846B847F0
:1045E00001303FF456AE08F101080E9B013B4345F4
:1045F000F1DC534604F15002E0E64FF0000804F10C
:104600001A09F2E701234246DFE701234A46314611
:104610002846B84701303FF43CAE08F10108E36892
:104620000F995B1A4345F0DCFDE64FF0000804F1FA
:104630001909F4E72DE9F047164699468A680B698F
:1046400007469342B8BF1346336091F843200C46A7
:10465000DDF820800AB1013333602368990642BF38
:10466000336802333360256815F0060506D104F17E
:10467000190AE36832689B1AAB4228DC94F843209D
:10468000131E226818BF012392062DD449463846CE
:1046900004F14302C047013020D02368E56803F0ED
:1046A0000603042B18BF002532684FF00006A368EC
:1046B00008BFAD1A226908BF25EAE5759342C4BF59
:1046C0009B1AED181A34B5421AD1002008E00123D4
:1046D000524649463846C047013003D14FF0FF30BB
:1046E000BDE8F0870135C4E73020E11881F84300C8
:1046F0005A1C94F845102244023382F84310C5E74F
:104700000123224649463846C0470130E6D00136EB
:10471000D9E700002DE9FF470F7E9146782F8046AC
:104720000C469A460C9D01F1430207D8622F0AD825
:10473000002F00F0D980582F00F0A48004F142052A
:1047400084F842703AE0A7F16303152BF6D801A173
:1047500051F823F0AD470008C14700083D47000865
:104760003D4700083D4700083D470008C147000895
:104770003D4700083D4700083D4700083D47000809
:10478000CF480008F1470008B14800083D4700083D
:104790003D470008F14800083D470008F147000880
:1047A0003D4700083D470008B94800082B681A1D1E
:1047B0001B682A6004F1420584F842300123A4E01A
:1047C00020682968060601F104030AD50E682B60EB
:1047D000002E03DA2D23764284F843300A235E4804
:1047E00019E00E6810F0400F2B6018BF36B2EFE7EB
:1047F0002B682068191D2960010601D51E6802E09A
:104800004606FBD51E886F2F0CBF08230A2352488B
:10481000002184F843106568002DA8BF2168A560B9
:10482000A4BF21F0040121600EB9002D4DD0154622
:10483000B6FBF3F103FB1167C75D05F8017D374651
:10484000BB420E46F4D9082B0BD12368DE0708D5EE
:10485000236961689942DEBF302305F8013C05F108
:10486000FF35521B22614B4621464046CDF800A041
:1048700003AAFFF7DFFE01304CD14FF0FF3004B048
:10488000BDE8F087344881F845702968236851F8FD
:10489000046B29601D0614D5DF0744BF43F02003D5
:1048A00023601EB9236823F0200323601023AFE7A1
:1048B000236843F0200323607823284884F8453098
:1048C000E3E7590648BFB6B2E6E71546BBE72B68F3
:1048D0002668181D6169286035061B6801D51960B6
:1048E00002E07006FBD51980002315462361BAE764
:1048F0002B6800211A1D2A601D686268284601F095
:1049000021FA08B1401B606063682361002384F8CA
:104910004330A8E72A46494640462369D04701303C
:10492000ABD023689B0713D4E068039B9842B8BFC1
:104930001846A4E70123324649464046D047013095
:104940009BD00135E36803995B1AAB42F2DCEBE7DD
:10495000002504F11906F5E73E6D00084F6D0008CB
:104960000FB40A4B13B51C6824B1A36913B92046D0
:1049700001F0D6F805AB2046049AA168019301F036
:1049800097FE02B0BDE8104004B070470C00002054
:1049900070B50E46054618B183690BB901F0C0F831
:1049A000AB69AC6813B9284601F0BAF82C4B9C42AD
:1049B00020D16C68636EDB0705D4A389980502D407
:1049C000A06D01F050F9A38919071DD52369DBB14A
:1049D000013EA36816F8011F013BA36039BB002B01
:1049E00038DA22460A21284600F048F8013011D072
:1049F0000A2511E01B4B9C4201D1AC68DAE71A4B47
:104A00009C4208BFEC68D5E72146284600F088F8AC
:104A10000028DDD04FF0FF35636EDA0705D4A38997
:104A20009B0502D4A06D01F01FF9284670BD002B34
:104A300004DAA2699A4206DC0A2904D023685A1CC7
:104A400022601970C5E72246284600F017F80130A9
:104A5000BFD1DFE70A2523685A1C22601D70DBE7FF
:104A6000106E0008306E0008F06D0008024B014621
:104A70001868FFF78DBF00BF0C000020F8B50E4688
:104A80001446054618B183690BB901F049F8214B6A
:104A90009C422BD16C68A369A360A3891A072FD508
:104AA00023696BB323692068F6B2C01A636937467D
:104AB000834204DC2146284600F09EFF30BBA368F9
:104AC0000130013BA36023685A1C22601E70636999
:104AD000834204D0A389DB0706D50A2E04D12146E0
:104AE000284600F089FF88B93846F8BD0A4B9C4239
:104AF00001D1AC68CFE7094B9C4208BFEC68CAE71C
:104B00002146284600F00CF80028CBD04FF0FF37A4
:104B1000EAE700BF106E0008306E0008F06D000874
:104B2000324B70B51D6806460C4625B1AB6913B90A
:104B3000284600F0F5FF2E4B9C420FD16C68A389EC
:104B4000B4F90C2019072CD4DD0611D409233360E5
:104B500042F040034FF0FF30A3813EE0254B9C42E2
:104B600001D1AC68EBE7244B9C4208BFEC68E6E758
:104B7000580712D5616B41B104F14403994202D048
:104B8000304601F091FC00236363A38923F02403E2
:104B9000A3810023636023692360A38943F0080392
:104BA000A38123694BB9A38903F42073B3F5007F74
:104BB00003D02146304601F07DF8A089B4F90C20DD
:104BC00010F001030AD00023A36063695B42A36174
:104BD000236943B910F08000BAD170BD810758BF76
:104BE0006369A360F4E70020F7E700BF0C00002032
:104BF000106E0008306E0008F06D00082DE9F74FC8
:104C000003690C690746A342C0F28280013C00F1AF
:104C1000140501F1140805EB8403019358F82430BE
:104C200055F8242001339A42B2FBF3F64FEA840B85
:104C300008EB840931D34FF0000E4046AC46F246F3
:104C400050F8042B93B206FB03E3120C4FEA134E09
:104C50009BB206FB02E2AAEB0303DCF800A04FEADA
:104C6000124E1FFA8AFA5344DCF800A092B2C2EB4B
:104C70001A4202EB23429BB243EA024381454FEAC8
:104C8000224A4CF8043BDBD255F80B302BB9019B80
:104C9000043B9D421A462FD33C61384601F0ECFAA2
:104CA000002825DB28464FF0000C013658F8041B7D
:104CB000D0F800E08BB2ACEB03031FFA8EF2134482
:104CC0000A0CC2EB1E4202EB23429BB243EA0243B0
:104CD000C1454FEA224C40F8043BE7D255F8242066
:104CE00005EB840322B9043B9D421A460AD33C617A
:104CF000304603B0BDE8F08F1268043B002ACBD1E8
:104D0000013CC6E71268043B002AF0D1013CEBE706
:104D10000020EEE7000000002DE9F04F16461F4688
:104D2000446A99B00546CDE90467DDF8948074B90A
:104D3000102000F0FFFF0246686220B9EA21A84B6C
:104D4000A84801F04BFEC0E901440460C4606B6AEE
:104D5000196851B15A68012393404A608B60284614
:104D600001F04CF800226B6A1A603B1EAFBF0023B3
:104D7000012223F000430593A8BFC8F80030DDF8F6
:104D80001490994BB8BFC8F8002033EA090319D131
:104D900042F20F73249A1360C9F31303334300F0F4
:104DA0007F85269B53B9914B22E0914B03930833A7
:104DB000269A1360039819B0BDE8F08F8B4B0393CC
:104DC0000333F5E7DDE90434CDE90C34DDE90C010A
:104DD00000220023FBF7E8FD804658B10123249A06
:104DE0001360269B002B00F0588582481860431EF4
:104DF0000393DFE716AB019317AB00932846DDE979
:104E00000C2301F0E1FAC9F30A548346002C7FD049
:104E1000DDE90C010D9BA4F2FF34C3F3130343F04F
:104E20007F5141F44011CDF84C800022724BFBF7CA
:104E30009BF965A3D3E90023FBF74EFB64A3D3E9F9
:104E40000023FBF793F9064620460F46FBF7DAFAF4
:104E500061A3D3E90023FBF73FFB02460B46304634
:104E60003946FBF783F906460F46FBF7E5FD0022BE
:104E70008246002330463946FBF7A0FD48B1504634
:104E8000FBF7C0FA32463B46FBF78EFD08B90AF144
:104E9000FF3ABAF1160F58D8DDE90C01574B03EB76
:104EA000CA03D3E90023FBF789FD00284FD0002374
:104EB0000AF1FF3A0F93169B1C1B631E099349BF0F
:104EC000C4F1010300230693002354BF0693099302
:104ED000BAF1000F3DDB099BCDF838A0534409938C
:104EE00000230A93229B092B00F28C80052BC4BF60
:104EF000043B2293229BC8BF0024A3F10203D8BF26
:104F00000124032B00F28A80DFE803F02D4F4D5B74
:104F1000DDE916431C4404F23243202BC3BFC3F126
:104F2000400304F2124009FA03F3C3F12003C6BFA1
:104F300026FA00F0184306FA03F0FBF753FA0123B0
:104F4000A1F1F871013C13936FE70123B2E70F90D1
:104F5000B1E7069BA3EB0A030693CAF100030A9389
:104F600000230E93BEE700230B93239B002B58DCFA
:104F70004FF001094B46CDF82090CDF88C900022DF
:104F8000686A4260042202F114069E4241684ED9CA
:104F9000284600F0F3FE039000284CD102464FF45F
:104FA000D571174BCCE60123DEE700230B93239B3F
:104FB0000AEB030909F10103012B0893B8BF012390
:104FC000DDE70123F2E700BF61436F63A787D23FAC
:104FD000B3C8608B288AC63FFB799F501344D33FE8
:104FE0006D6D0008846D00080000F07F696D000899
:104FF000606D00083D6D00080000F83FD86E0008A5
:10500000DF6D0008012400230B9422934FF0FF3939
:1050100000221223CDF820902392B0E701230B93B6
:10502000F4E7DDF88C904B46CDF82090A7E70131EE
:1050300041605200A7E76B6A039A1A60089B0E2B27
:1050400000F2A880002C00F0A580BAF1000F34DD3A
:105050009A4A0AF00F0302EBC3031AF4807FD3E9E4
:105060000034CDE910344FEA2A1416D0DDE90C01E2
:10507000934B0327D3E90823FBF758FBCDE9040141
:1050800004F00F048E4E54B9DDE91023DDE904016C
:10509000FBF74CFBCDE9040129E00227F2E7E10729
:1050A00008D5DDE91001D6E90023FBF715FACDE9B3
:1050B0001001013764100836E5E700F0A580DDE94E
:1050C0000C01CAF100047D4B04F00F0203EBC20394
:1050D000D3E90023FBF700FA02270023CDE90401FE
:1050E000774E2411002C40F08480002BD2D10F9BEE
:1050F000002B00F08B80DDE90434CDE91034DDE9CC
:10510000100100226F4BFBF759FC00287ED0089B52
:10511000002B7BD0B9F1000F38DDDDE91001002252
:10512000694BFBF7D9F94C46CDE904010AF1FF3888
:1051300001373846FBF766F9DDE90423FBF7CCF9C4
:105140000022624BFBF712F8A1F15076CDE9100175
:105150001196002C5DD1DDE9040100225C4BFBF7C8
:1051600003F802460B46CDE904233346109AFBF7B9
:1051700043FC002840F09C82DDE90401109A06F10E
:105180000043FBF71BFC002840F09082DDE90C3463
:10519000CDE90434179B002BC0F25281BAF10E0FF7
:1051A00000F34E81454B03EBCA03D3E90034CDE94C
:1051B0000634239B002B80F2DB80089B002B00F33E
:1051C000D78040F07282DDE906010022404BFBF7F8
:1051D00083F9DDE90423FBF705FC089C264600283B
:1051E00040F048823123039F0AF1010A07F8013B8E
:1051F00044E2E20705D5D6E90023FBF76DF9012368
:105200000137641008366DE7022770E7D046089C26
:105210008FE70399294B214412910B9903EBC403A7
:10522000DDE9106753E90223002955D00020294900
:10523000FBF77CFA3B463246FAF796FFCDE91001C0
:10524000039FDDE90401FBF7F7FB0446FBF7DAF8FF
:1052500002460B46DDE90401FAF786FF02460B46DB
:105260003034CDE90423DDE9102307F8014BFBF7C7
:10527000A5FB002874D1DDE9042300201149FAF7C9
:1052800073FFDDE91023FBF799FB002840F0B7809E
:10529000129B9F423FF47AAFDDE9100100220A4BD6
:1052A000FBF71AF90022CDE91001DDE90401064BF4
:1052B000FBF712F9CDE90401C3E700BFD86E00087F
:1052C000B06E00080000F03F0000244000001C40C9
:1052D000000014400000E03F30463946FBF7FCF880
:1052E000129BCDE91001039C1493DDE90401FBF747
:1052F000A3FB1590FBF786F802460B46DDE9040197
:10530000FAF732FF159B0646303304F8013B129B37
:105310000F469C424FF0000224D1DDE91001B04B52
:10532000FAF724FF02460B4630463946FBF764FB8A
:10533000002863D1DDE910230020A949FAF714FF02
:1053400002460B4630463946FBF738FB00283FF44F
:105350001DAF149F7B1E149317F8013C302BF8D01F
:10536000C2463BE09F4BFBF7B7F8CDE90401BCE731
:10537000039FDDE90489DDE9062340464946FBF742
:10538000D5F9FBF759FB0446FBF73CF8DDE90623AA
:10539000FBF7A2F802460B4640464946FAF7E4FE00
:1053A00004F1300607F8016B039EDDF820C0BE1B38
:1053B000B44502460B4636D1FAF7D8FEDDE906239E
:1053C00080468946FBF718FB58BBDDE906234046BB
:1053D0004946FBF7E9FA08B1E10722D428465946C5
:1053E00000F00CFD00233B70249B0AF101001860C3
:1053F000269B002B3FF4DEAC1F60DBE427463B46D8
:105400001F4613F8012D392A07D1039A9A42F7D182
:105410003022039908F101080A701A7801321A70D3
:105420009EE7D046EBE700226E4BFBF755F80022D3
:10543000002380468946FBF7B7FA00289BD0CDE7CA
:105440000B9A002A00F0D080229A012A00F3AE8045
:10545000139A002A00F0A68003F233430A9C069FA9
:10546000069A01211A440692099A28461A4409927A
:1054700000F07AFD0646002F0CDD099B002B09DDAC
:10548000BB42A8BF3B46069AFF1AD21A0692099A57
:10549000D31A09930A9BF3B10B9B002B00F0A88051
:1054A000002C10DD31462246284600F01BFE5A46ED
:1054B00001460646284600F06DFD804659462846BE
:1054C00000F09CFCC3460A9B1A1B04D05946284690
:1054D00000F008FE83460121284600F045FD0E9BA2
:1054E0000446002B40F386801A460146284600F009
:1054F000F9FD229B0446012B7FDD4FF00008236954
:1055000004EB8303186900F0E1FCC0F12000099B63
:10551000184410F01F0000F09280C0F12003042B0B
:1055200040F38A80C0F11C00069B074403440693A5
:10553000099B03440993069B002B05DD59461A4637
:10554000284600F029FE8346099B002B05DD2146F5
:105550001A46284600F020FE04460F9B002B70D010
:105560002146584600F088FE00286ADA0023594692
:105570000A22284600F064FC0B9B83460AF1FF3A9E
:10558000002B00F09481314600230A22284600F0C7
:1055900057FCB9F1000F064600F39380229B022BC3
:1055A00057DC8EE0169BC3F1360357E7089B5C1E61
:1055B0000A9BA342B7BF0A9B1C1BE21A0E9BBEBFED
:1055C0000A949B180E93089BB8BF0024002BBBBF06
:1055D000069B089A069F9F1AACBF089B00233FE7D3
:1055E0000000E03F000024400A9C069F0B9E42E71B
:1055F0000A9A6BE7229B012B19DC049BBBB9059B24
:10560000C3F313039BB9059B23F000431B0D1B053C
:1056100083B14FF00108069B01330693099B0133C8
:1056200009930E9B002B7FF46AAF01206FE74FF0C8
:105630000008F6E79846F4E73FF47DAF18461C30C3
:1056400072E7089B002B36DC229B022B33DDDDF852
:105650002090B9F1000F0DD121464B460522284676
:1056600000F0EEFB01460446584600F005FE002817
:105670003FF7B8AD239B039F6FEA030A4FF0000882
:105680002146284600F0BAFB002E3FF4A7AEB8F141
:10569000000F05D0B04503D04146284600F0AEFBD0
:1056A0003146284600F0AAFB98E600242646E1E7AA
:1056B000C246264696E50B9BDDF82090002B00F0B5
:1056C000FD80002F05DD31463A46284600F064FD96
:1056D0000646B8F1000F5CD02846716800F04EFB1A
:1056E000074628B9024640F2EA217F4BFFF728BB64
:1056F000326906F10C01023292000C3000F030FBEE
:1057000001223946284600F047FDB0460646039B75
:1057100001330893039B4B440A93049B03F001035A
:105720000993089B2146013B58460493FFF766FA0C
:10573000034641463033069058460B9300F09CFDDB
:10574000324681462146284600F0B2FDC26807462F
:105750000B9B02BB0146584600F08EFD02460B9B98
:1057600039462846CDE90B3200F048FB229B0C9AC3
:10577000089F43EA0201099B0B430B9B0DD1392B78
:1057800029D0B9F1000F01DD069B3133049A137063
:1057900076E73046B9E70122E2E7B9F1000F06DB10
:1057A000229941EA0909099959EA010120D1002AFF
:1057B000ECDD594601222846089300F0EDFC214615
:1057C000834600F059FD0028089B02DCDED1DA0791
:1057D000DCD5392BD8D13923049A13703B461F46A8
:1057E00017F8012C013B392A50D001321A7047E7D3
:1057F000002A03DD392BEED00133C7E7089A0A9956
:1058000002F8013C8A422AD0594600230A2228463F
:1058100000F016FBB04583464FF000034FF00A023C
:105820004146284607D100F00BFB80460646089B00
:105830000133089375E700F003FB314680460023EF
:105840000A22284600F0FCFA0646F0E7B9F1000FFC
:10585000CCBF4F4601274FF00008039A1744594622
:1058600001222846089300F097FC2146834600F069
:1058700003FD0028B2DC02D1089BDB07AED43B4617
:105880001F4613F8012D302AFAD0F9E6039A9A42FE
:10589000A5D131230AF1010A79E7144BFFF7A8BA21
:1058A000269B002B7FF481AA114BFFF7A1BAB9F117
:1058B000000F03DC229B022B3FF7CBAE039F214658
:1058C0005846FFF79BF9039A00F1300307F8013BB4
:1058D000BA1A9145BADD594600230A22284600F03B
:1058E000AFFA8346EBE700BFDF6D00083C6D0008B0
:1058F000606D00088A89F8B5054610070C4657D434
:105900004B68002B04DC0B6C002B01DC0020F8BD85
:10591000E66A002EFAD0002312F480522F682B6022
:1059200032D0606DA3895A0705D56368C01A636BCE
:105930000BB1236CC01A00230246E66A2846216A8E
:10594000B047431CA38906D129681D292CD8294AB0
:10595000CA40D60728D5002262602269D904226095
:1059600004D5421C01D12B6803B96065616B2F60BF
:105970000029CBD004F14403994202D0284600F01C
:1059800093FD00206063C2E7216A01232846B047E7
:10599000411CC7D12B68002BC4D01D2B01D0162B66
:1059A00001D12F60B2E7A38943F04003A381AEE7A2
:1059B0000F69002FAAD0930718BF00230E6808BFF5
:1059C0004B69F61B0F608B60002E9FDD33463A4615
:1059D0002846216AD4F828C0E047002806DCA389BD
:1059E0004FF0FF3043F04003A38190E70744361A9D
:1059F000EAE700BF0100402038B50B6905460C46B8
:105A000013B90025284638BD18B183690BB900F0D9
:105A100087F8144B9C421BD16C68B4F90C30002BF6
:105A2000EFD0626ED00704D4990502D4A06D00F0C7
:105A30001AF928462146FFF75DFF636E0546DA072F
:105A4000E0D4A3899B05DDD4A06D00F00DF9D9E762
:105A5000054B9C4201D1AC68DFE7044B9C4208BF78
:105A6000EC68DAE7106E0008306E0008F06D000890
:105A7000002310B50446C0E90033C0E90433836055
:105A800081814366C2818361194608225C30FEF73A
:105A9000FFFA054B24626362044BA362044BE3628A
:105AA000044B236310BD00BF31690008536900082F
:105AB0008B690008AF690008014900F0AFB800BF6A
:105AC000F9590008682270B54D1E55430E4605F180
:105AD000740100F051FD044640B10021C0E90016F8
